{
  "_format": "hh-sol-artifact-1",
  "contractName": "TokenExchange",
  "sourceName": "contracts/exchange.sol",
  "abi": [
    {
      "inputs": [],
      "stateMutability": "nonpayable",
      "type": "constructor"
    },
    {
      "anonymous": false,
      "inputs": [
        {
          "indexed": true,
          "internalType": "address",
          "name": "previousOwner",
          "type": "address"
        },
        {
          "indexed": true,
          "internalType": "address",
          "name": "newOwner",
          "type": "address"
        }
      ],
      "name": "OwnershipTransferred",
      "type": "event"
    },
    {
      "inputs": [
        {
          "internalType": "uint256",
          "name": "min_exchange_rate",
          "type": "uint256"
        },
        {
          "internalType": "uint256",
          "name": "max_exchange_rate",
          "type": "uint256"
        }
      ],
      "name": "addLiquidity",
      "outputs": [],
      "stateMutability": "payable",
      "type": "function"
    },
    {
      "inputs": [
        {
          "internalType": "uint256",
          "name": "amountTokens",
          "type": "uint256"
        }
      ],
      "name": "createPool",
      "outputs": [],
      "stateMutability": "payable",
      "type": "function"
    },
    {
      "inputs": [],
      "name": "exchange_name",
      "outputs": [
        {
          "internalType": "string",
          "name": "",
          "type": "string"
        }
      ],
      "stateMutability": "view",
      "type": "function"
    },
    {
      "inputs": [],
      "name": "getReserves",
      "outputs": [
        {
          "internalType": "uint256",
          "name": "",
          "type": "uint256"
        },
        {
          "internalType": "uint256",
          "name": "",
          "type": "uint256"
        }
      ],
      "stateMutability": "view",
      "type": "function"
    },
    {
      "inputs": [],
      "name": "getSwapFee",
      "outputs": [
        {
          "internalType": "uint256",
          "name": "",
          "type": "uint256"
        },
        {
          "internalType": "uint256",
          "name": "",
          "type": "uint256"
        }
      ],
      "stateMutability": "view",
      "type": "function"
    },
    {
      "inputs": [],
      "name": "owner",
      "outputs": [
        {
          "internalType": "address",
          "name": "",
          "type": "address"
        }
      ],
      "stateMutability": "view",
      "type": "function"
    },
    {
      "inputs": [
        {
          "internalType": "uint256",
          "name": "min_exchange_rate",
          "type": "uint256"
        },
        {
          "internalType": "uint256",
          "name": "max_exchange_rate",
          "type": "uint256"
        }
      ],
      "name": "removeAllLiquidity",
      "outputs": [],
      "stateMutability": "payable",
      "type": "function"
    },
    {
      "inputs": [
        {
          "internalType": "uint256",
          "name": "amountETH",
          "type": "uint256"
        },
        {
          "internalType": "uint256",
          "name": "min_exchange_rate",
          "type": "uint256"
        },
        {
          "internalType": "uint256",
          "name": "max_exchange_rate",
          "type": "uint256"
        }
      ],
      "name": "removeLiquidity",
      "outputs": [],
      "stateMutability": "payable",
      "type": "function"
    },
    {
      "inputs": [],
      "name": "renounceOwnership",
      "outputs": [],
      "stateMutability": "nonpayable",
      "type": "function"
    },
    {
      "inputs": [
        {
          "internalType": "uint256",
          "name": "max_exchange_rate",
          "type": "uint256"
        }
      ],
      "name": "swapETHForTokens",
      "outputs": [],
      "stateMutability": "payable",
      "type": "function"
    },
    {
      "inputs": [
        {
          "internalType": "uint256",
          "name": "amountTokens",
          "type": "uint256"
        },
        {
          "internalType": "uint256",
          "name": "max_exchange_rate",
          "type": "uint256"
        }
      ],
      "name": "swapTokensForETH",
      "outputs": [],
      "stateMutability": "payable",
      "type": "function"
    },
    {
      "inputs": [],
      "name": "token",
      "outputs": [
        {
          "internalType": "contract Token",
          "name": "",
          "type": "address"
        }
      ],
      "stateMutability": "view",
      "type": "function"
    },
    {
      "inputs": [
        {
          "internalType": "address",
          "name": "newOwner",
          "type": "address"
        }
      ],
      "name": "transferOwnership",
      "outputs": [],
      "stateMutability": "nonpayable",
      "type": "function"
    }
  ],
  "bytecode": "0x60806040526040518060400160405280600681526020017f667a737761700000000000000000000000000000000000000000000000000000815250600190816200004a9190620004a7565b50735fbdb2315678afecb367f032d93f642f64180aa3600260006101000a81548173ffffffffffffffffffffffffffffffffffffffff021916908373ffffffffffffffffffffffffffffffffffffffff160217905550600260009054906101000a900473ffffffffffffffffffffffffffffffffffffffff16600360006101000a81548173ffffffffffffffffffffffffffffffffffffffff021916908373ffffffffffffffffffffffffffffffffffffffff16021790555060006004556000600555600060065560006007556000600a556003600b556064600c55620186a0600e553480156200013a57600080fd5b506200015b6200014f6200016160201b60201c565b6200016960201b60201c565b6200058e565b600033905090565b60008060009054906101000a900473ffffffffffffffffffffffffffffffffffffffff169050816000806101000a81548173ffffffffffffffffffffffffffffffffffffffff021916908373ffffffffffffffffffffffffffffffffffffffff1602179055508173ffffffffffffffffffffffffffffffffffffffff168173ffffffffffffffffffffffffffffffffffffffff167f8be0079c531659141344cd1fd0a4f28419497f9722a3daafe3b4186f6b6457e060405160405180910390a35050565b600081519050919050565b7f4e487b7100000000000000000000000000000000000000000000000000000000600052604160045260246000fd5b7f4e487b7100000000000000000000000000000000000000000000000000000000600052602260045260246000fd5b60006002820490506001821680620002af57607f821691505b602082108103620002c557620002c462000267565b5b50919050565b60008190508160005260206000209050919050565b60006020601f8301049050919050565b600082821b905092915050565b6000600883026200032f7fffffffffffffffffffffffffffffffffffffffffffffffffffffffffffffffff82620002f0565b6200033b8683620002f0565b95508019841693508086168417925050509392505050565b6000819050919050565b6000819050919050565b600062000388620003826200037c8462000353565b6200035d565b62000353565b9050919050565b6000819050919050565b620003a48362000367565b620003bc620003b3826200038f565b848454620002fd565b825550505050565b600090565b620003d3620003c4565b620003e081848462000399565b505050565b5b818110156200040857620003fc600082620003c9565b600181019050620003e6565b5050565b601f82111562000457576200042181620002cb565b6200042c84620002e0565b810160208510156200043c578190505b620004546200044b85620002e0565b830182620003e5565b50505b505050565b600082821c905092915050565b60006200047c600019846008026200045c565b1980831691505092915050565b600062000497838362000469565b9150826002028217905092915050565b620004b2826200022d565b67ffffffffffffffff811115620004ce57620004cd62000238565b5b620004da825462000296565b620004e78282856200040c565b600060209050601f8311600181146200051f57600084156200050a578287015190505b62000516858262000489565b86555062000586565b601f1984166200052f86620002cb565b60005b82811015620005595784890151825560018201915060208501945060208101905062000532565b8683101562000579578489015162000575601f89168262000469565b8355505b6001600288020188555050505b505050505050565b6128fc806200059e6000396000f3fe6080604052600436106100c25760003560e01c80638da5cb5b1161007f578063d4cadf6811610059578063d4cadf68146101dd578063f2fde38b14610209578063f694f7d114610232578063fc0c546a1461025d576100c2565b80638da5cb5b1461017a5780639cd441da146101a5578063a22280a6146101c1576100c2565b80630902f1ac146100c75780632eab2841146100f357806358ad6de41461010f578063715018a61461012b5780638259e6a014610142578063857620e11461015e575b600080fd5b3480156100d357600080fd5b506100dc610288565b6040516100ea9291906119e0565b60405180910390f35b61010d60048036038101906101089190611a3a565b610299565b005b61012960048036038101906101249190611a67565b6104f4565b005b34801561013757600080fd5b506101406106c6565b005b61015c60048036038101906101579190611a3a565b6106da565b005b61017860048036038101906101739190611aa7565b610a8a565b005b34801561018657600080fd5b5061018f610d97565b60405161019c9190611b3b565b60405180910390f35b6101bf60048036038101906101ba9190611a67565b610dc0565b005b6101db60048036038101906101d69190611a67565b61127b565b005b3480156101e957600080fd5b506101f26115f8565b6040516102009291906119e0565b60405180910390f35b34801561021557600080fd5b50610230600480360381019061022b9190611b82565b611609565b005b34801561023e57600080fd5b5061024761168c565b6040516102549190611c3f565b60405180910390f35b34801561026957600080fd5b5061027261171a565b60405161027f9190611cc0565b60405180910390f35b600080600554600454915091509091565b600034116102dc576040517f08c379a00000000000000000000000000000000000000000000000000000000081526004016102d390611d27565b60405180910390fd5b60003490506000816005546102f19190611d76565b600454836102ff9190611daa565b6103099190611e1b565b90506000811161034e576040517f08c379a000000000000000000000000000000000000000000000000000000000815260040161034590611e98565b60405180910390fd5b6004548103610364578061036190611eb8565b90505b670de0b6b3a7640000836103789190611daa565b925082816103869190611daa565b600e54836103949190611daa565b11156103d5576040517f08c379a00000000000000000000000000000000000000000000000000000000081526004016103cc90611f2d565b60405180910390fd5b6000600c54600b54836103e89190611daa565b6103f29190611e1b565b905080600660008282546104069190611d76565b92505081905550826005600082825461041f9190611d76565b9250508190555081600460008282546104389190611f4d565b92505081905550808261044b9190611f4d565b9150600360009054906101000a900473ffffffffffffffffffffffffffffffffffffffff1673ffffffffffffffffffffffffffffffffffffffff1663a9059cbb33846040518363ffffffff1660e01b81526004016104aa929190611f81565b6020604051808303816000875af11580156104c9573d6000803e3d6000fd5b505050506040513d601f19601f820116820180604052508101906104ed9190611fe2565b5050505050565b6000600860003373ffffffffffffffffffffffffffffffffffffffff1673ffffffffffffffffffffffffffffffffffffffff1681526020019081526020016000205411610576576040517f08c379a000000000000000000000000000000000000000000000000000000000815260040161056d906120a7565b60405180910390fd5b6000600a54600860003373ffffffffffffffffffffffffffffffffffffffff1673ffffffffffffffffffffffffffffffffffffffff168152602001908152602001600020546005546105c89190611daa565b6105d29190611e1b565b90506105df818484610a8a565b6000600860003373ffffffffffffffffffffffffffffffffffffffff1673ffffffffffffffffffffffffffffffffffffffff1681526020019081526020016000208190555060005b6009805490508110156106c0573373ffffffffffffffffffffffffffffffffffffffff166009828154811061065f5761065e6120c7565b5b9060005260206000200160009054906101000a900473ffffffffffffffffffffffffffffffffffffffff1673ffffffffffffffffffffffffffffffffffffffff16036106af576106ae81611740565b5b806106b9906120f6565b9050610627565b50505050565b6106ce61187d565b6106d860006118fb565b565b6106e261187d565b600060045414610727576040517f08c379a000000000000000000000000000000000000000000000000000000000815260040161071e9061218a565b60405180910390fd5b60006005541461076c576040517f08c379a0000000000000000000000000000000000000000000000000000000008152600401610763906121f6565b60405180910390fd5b600034116107af576040517f08c379a00000000000000000000000000000000000000000000000000000000081526004016107a690612262565b60405180910390fd5b6000600360009054906101000a900473ffffffffffffffffffffffffffffffffffffffff1673ffffffffffffffffffffffffffffffffffffffff166370a08231336040518263ffffffff1660e01b815260040161080c9190611b3b565b602060405180830381865afa158015610829573d6000803e3d6000fd5b505050506040513d601f19601f8201168201806040525081019061084d9190612297565b905080821115610892576040517f08c379a000000000000000000000000000000000000000000000000000000000815260040161088990612336565b60405180910390fd5b600082116108d5576040517f08c379a00000000000000000000000000000000000000000000000000000000081526004016108cc906123a2565b60405180910390fd5b600360009054906101000a900473ffffffffffffffffffffffffffffffffffffffff1673ffffffffffffffffffffffffffffffffffffffff166323b872dd3330856040518463ffffffff1660e01b8152600401610934939291906123c2565b6020604051808303816000875af1158015610953573d6000803e3d6000fd5b505050506040513d601f19601f820116820180604052508101906109779190611fe2565b50600360009054906101000a900473ffffffffffffffffffffffffffffffffffffffff1673ffffffffffffffffffffffffffffffffffffffff166370a08231306040518263ffffffff1660e01b81526004016109d39190611b3b565b602060405180830381865afa1580156109f0573d6000803e3d6000fd5b505050506040513d601f19601f82011682018060405250810190610a149190612297565b60048190555034600581905550600554600454610a319190611daa565b600d81905550620186a0600a819055506064600860003373ffffffffffffffffffffffffffffffffffffffff1673ffffffffffffffffffffffffffffffffffffffff168152602001908152602001600020819055505050565b60008311610acd576040517f08c379a0000000000000000000000000000000000000000000000000000000008152600401610ac490612445565b60405180910390fd5b600060055460045485610ae09190611daa565b610aea9190611e1b565b905060055484108015610afe575060045481105b610b3d576040517f08c379a0000000000000000000000000000000000000000000000000000000008152600401610b34906124b1565b60405180910390fd5b670de0b6b3a764000083610b519190611daa565b9250670de0b6b3a764000082610b679190611daa565b9150600e5484610b779190611daa565b8184610b839190611daa565b11158015610ba957508082610b989190611daa565b600e5485610ba69190611daa565b11155b610be8576040517f08c379a0000000000000000000000000000000000000000000000000000000008152600401610bdf9061251d565b60405180910390fd5b600060055485600a54610bfb9190611daa565b610c059190611e1b565b905080600a6000828254610c199190611f4d565b9250508190555080600860003373ffffffffffffffffffffffffffffffffffffffff1673ffffffffffffffffffffffffffffffffffffffff1681526020019081526020016000206000828254610c6f9190611f4d565b925050819055508460056000828254610c889190611f4d565b925050819055508160046000828254610ca19190611f4d565b925050819055503373ffffffffffffffffffffffffffffffffffffffff166108fc869081150290604051600060405180830381858888f19350505050158015610cee573d6000803e3d6000fd5b50600360009054906101000a900473ffffffffffffffffffffffffffffffffffffffff1673ffffffffffffffffffffffffffffffffffffffff1663a9059cbb33846040518363ffffffff1660e01b8152600401610d4c929190611f81565b6020604051808303816000875af1158015610d6b573d6000803e3d6000fd5b505050506040513d601f19601f82011682018060405250810190610d8f9190611fe2565b505050505050565b60008060009054906101000a900473ffffffffffffffffffffffffffffffffffffffff16905090565b60003411610e03576040517f08c379a0000000000000000000000000000000000000000000000000000000008152600401610dfa90612589565b60405180910390fd5b6000349050600060055460045483610e1b9190611daa565b610e259190611e1b565b9050600360009054906101000a900473ffffffffffffffffffffffffffffffffffffffff1673ffffffffffffffffffffffffffffffffffffffff166370a08231336040518263ffffffff1660e01b8152600401610e829190611b3b565b602060405180830381865afa158015610e9f573d6000803e3d6000fd5b505050506040513d601f19601f82011682018060405250810190610ec39190612297565b811115610f05576040517f08c379a0000000000000000000000000000000000000000000000000000000008152600401610efc906125f5565b60405180910390fd5b670de0b6b3a764000084610f199190611daa565b9350670de0b6b3a764000083610f2f9190611daa565b9250600e5482610f3f9190611daa565b8185610f4b9190611daa565b11158015610f7157508083610f609190611daa565b600e5483610f6e9190611daa565b11155b610fb0576040517f08c379a0000000000000000000000000000000000000000000000000000000008152600401610fa79061251d565b60405180910390fd5b600060055483600a54610fc39190611daa565b610fcd9190611e1b565b905080600a6000828254610fe19190611d76565b925050819055506000805b6009805490508110156110da573373ffffffffffffffffffffffffffffffffffffffff1660098281548110611024576110236120c7565b5b9060005260206000200160009054906101000a900473ffffffffffffffffffffffffffffffffffffffff1673ffffffffffffffffffffffffffffffffffffffff16036110c95782600860003373ffffffffffffffffffffffffffffffffffffffff1673ffffffffffffffffffffffffffffffffffffffff16815260200190815260200160002060008282546110b99190611d76565b92505081905550600191506110da565b806110d3906120f6565b9050610fec565b5083600560008282546110ed9190611d76565b9250508190555082600460008282546111069190611d76565b92505081905550600360009054906101000a900473ffffffffffffffffffffffffffffffffffffffff1673ffffffffffffffffffffffffffffffffffffffff166323b872dd3330866040518463ffffffff1660e01b815260040161116c939291906123c2565b6020604051808303816000875af115801561118b573d6000803e3d6000fd5b505050506040513d601f19601f820116820180604052508101906111af9190611fe2565b506005546004546111c09190611daa565b600d81905550806112735781600860003373ffffffffffffffffffffffffffffffffffffffff1673ffffffffffffffffffffffffffffffffffffffff168152602001908152602001600020819055506009339080600181540180825580915050600190039060005260206000200160009091909190916101000a81548173ffffffffffffffffffffffffffffffffffffffff021916908373ffffffffffffffffffffffffffffffffffffffff1602179055505b505050505050565b600082116112be576040517f08c379a00000000000000000000000000000000000000000000000000000000081526004016112b590611d27565b60405180910390fd5b600360009054906101000a900473ffffffffffffffffffffffffffffffffffffffff1673ffffffffffffffffffffffffffffffffffffffff166370a08231336040518263ffffffff1660e01b81526004016113199190611b3b565b602060405180830381865afa158015611336573d6000803e3d6000fd5b505050506040513d601f19601f8201168201806040525081019061135a9190612297565b82111561139c576040517f08c379a000000000000000000000000000000000000000000000000000000000815260040161139390612687565b60405180910390fd5b6000826004546113ac9190611d76565b600554846113ba9190611daa565b6113c49190611e1b565b905060008111611409576040517f08c379a000000000000000000000000000000000000000000000000000000000815260040161140090611e98565b60405180910390fd5b600554810361141f578061141c90611eb8565b90505b670de0b6b3a7640000826114339190611daa565b915081836114419190611daa565b600e548261144f9190611daa565b1115611490576040517f08c379a000000000000000000000000000000000000000000000000000000000815260040161148790611f2d565b60405180910390fd5b6000600c54600b54836114a39190611daa565b6114ad9190611e1b565b905080600760008282546114c19190611d76565b9250508190555083600460008282546114da9190611d76565b9250508190555081600560008282546114f39190611f4d565b9250508190555080826115069190611f4d565b9150600360009054906101000a900473ffffffffffffffffffffffffffffffffffffffff1673ffffffffffffffffffffffffffffffffffffffff166323b872dd3330876040518463ffffffff1660e01b8152600401611567939291906123c2565b6020604051808303816000875af1158015611586573d6000803e3d6000fd5b505050506040513d601f19601f820116820180604052508101906115aa9190611fe2565b503373ffffffffffffffffffffffffffffffffffffffff166108fc839081150290604051600060405180830381858888f193505050501580156115f1573d6000803e3d6000fd5b5050505050565b600080600b54600c54915091509091565b61161161187d565b600073ffffffffffffffffffffffffffffffffffffffff168173ffffffffffffffffffffffffffffffffffffffff1603611680576040517f08c379a000000000000000000000000000000000000000000000000000000000815260040161167790612719565b60405180910390fd5b611689816118fb565b50565b6001805461169990612768565b80601f01602080910402602001604051908101604052809291908181526020018280546116c590612768565b80156117125780601f106116e757610100808354040283529160200191611712565b820191906000526020600020905b8154815290600101906020018083116116f557829003601f168201915b505050505081565b600360009054906101000a900473ffffffffffffffffffffffffffffffffffffffff1681565b6009805490508110611787576040517f08c379a000000000000000000000000000000000000000000000000000000000815260040161177e9061280b565b60405180910390fd5b6009600160098054905061179b9190611f4d565b815481106117ac576117ab6120c7565b5b9060005260206000200160009054906101000a900473ffffffffffffffffffffffffffffffffffffffff16600982815481106117eb576117ea6120c7565b5b9060005260206000200160006101000a81548173ffffffffffffffffffffffffffffffffffffffff021916908373ffffffffffffffffffffffffffffffffffffffff16021790555060098054806118455761184461282b565b5b6001900381819060005260206000200160006101000a81549073ffffffffffffffffffffffffffffffffffffffff0219169055905550565b6118856119bf565b73ffffffffffffffffffffffffffffffffffffffff166118a3610d97565b73ffffffffffffffffffffffffffffffffffffffff16146118f9576040517f08c379a00000000000000000000000000000000000000000000000000000000081526004016118f0906128a6565b60405180910390fd5b565b60008060009054906101000a900473ffffffffffffffffffffffffffffffffffffffff169050816000806101000a81548173ffffffffffffffffffffffffffffffffffffffff021916908373ffffffffffffffffffffffffffffffffffffffff1602179055508173ffffffffffffffffffffffffffffffffffffffff168173ffffffffffffffffffffffffffffffffffffffff167f8be0079c531659141344cd1fd0a4f28419497f9722a3daafe3b4186f6b6457e060405160405180910390a35050565b600033905090565b6000819050919050565b6119da816119c7565b82525050565b60006040820190506119f560008301856119d1565b611a0260208301846119d1565b9392505050565b600080fd5b611a17816119c7565b8114611a2257600080fd5b50565b600081359050611a3481611a0e565b92915050565b600060208284031215611a5057611a4f611a09565b5b6000611a5e84828501611a25565b91505092915050565b60008060408385031215611a7e57611a7d611a09565b5b6000611a8c85828601611a25565b9250506020611a9d85828601611a25565b9150509250929050565b600080600060608486031215611ac057611abf611a09565b5b6000611ace86828701611a25565b9350506020611adf86828701611a25565b9250506040611af086828701611a25565b9150509250925092565b600073ffffffffffffffffffffffffffffffffffffffff82169050919050565b6000611b2582611afa565b9050919050565b611b3581611b1a565b82525050565b6000602082019050611b506000830184611b2c565b92915050565b611b5f81611b1a565b8114611b6a57600080fd5b50565b600081359050611b7c81611b56565b92915050565b600060208284031215611b9857611b97611a09565b5b6000611ba684828501611b6d565b91505092915050565b600081519050919050565b600082825260208201905092915050565b60005b83811015611be9578082015181840152602081019050611bce565b60008484015250505050565b6000601f19601f8301169050919050565b6000611c1182611baf565b611c1b8185611bba565b9350611c2b818560208601611bcb565b611c3481611bf5565b840191505092915050565b60006020820190508181036000830152611c598184611c06565b905092915050565b6000819050919050565b6000611c86611c81611c7c84611afa565b611c61565b611afa565b9050919050565b6000611c9882611c6b565b9050919050565b6000611caa82611c8d565b9050919050565b611cba81611c9f565b82525050565b6000602082019050611cd56000830184611cb1565b92915050565b7f616d6f756e74206d757374206265206120706f737369746976652e0000000000600082015250565b6000611d11601b83611bba565b9150611d1c82611cdb565b602082019050919050565b60006020820190508181036000830152611d4081611d04565b9050919050565b7f4e487b7100000000000000000000000000000000000000000000000000000000600052601160045260246000fd5b6000611d81826119c7565b9150611d8c836119c7565b9250828201905080821115611da457611da3611d47565b5b92915050565b6000611db5826119c7565b9150611dc0836119c7565b9250828202611dce816119c7565b91508282048414831517611de557611de4611d47565b5b5092915050565b7f4e487b7100000000000000000000000000000000000000000000000000000000600052601260045260246000fd5b6000611e26826119c7565b9150611e31836119c7565b925082611e4157611e40611dec565b5b828204905092915050565b7f746f6f20736d616c6c0000000000000000000000000000000000000000000000600082015250565b6000611e82600983611bba565b9150611e8d82611e4c565b602082019050919050565b60006020820190508181036000830152611eb181611e75565b9050919050565b6000611ec3826119c7565b915060008203611ed657611ed5611d47565b5b600182039050919050565b7f6368616e67655f72617465203e206d61785f6368616e67655f72617465000000600082015250565b6000611f17601d83611bba565b9150611f2282611ee1565b602082019050919050565b60006020820190508181036000830152611f4681611f0a565b9050919050565b6000611f58826119c7565b9150611f63836119c7565b9250828203905081811115611f7b57611f7a611d47565b5b92915050565b6000604082019050611f966000830185611b2c565b611fa360208301846119d1565b9392505050565b60008115159050919050565b611fbf81611faa565b8114611fca57600080fd5b50565b600081519050611fdc81611fb6565b92915050565b600060208284031215611ff857611ff7611a09565b5b600061200684828501611fcd565b91505092915050565b7f54686973206c69717569646974792070726f7669646572206973206e6f74206860008201527f6176696e6720616e792045544820616e6420746f6b656e7320696e20706f6f6c60208201527f2e00000000000000000000000000000000000000000000000000000000000000604082015250565b6000612091604183611bba565b915061209c8261200f565b606082019050919050565b600060208201905081810360008301526120c081612084565b9050919050565b7f4e487b7100000000000000000000000000000000000000000000000000000000600052603260045260246000fd5b6000612101826119c7565b91507fffffffffffffffffffffffffffffffffffffffffffffffffffffffffffffffff820361213357612132611d47565b5b600182019050919050565b7f546f6b656e20726573657276657320776173206e6f7420300000000000000000600082015250565b6000612174601883611bba565b915061217f8261213e565b602082019050919050565b600060208201905081810360008301526121a381612167565b9050919050565b7f45544820726573657276657320776173206e6f7420302e000000000000000000600082015250565b60006121e0601783611bba565b91506121eb826121aa565b602082019050919050565b6000602082019050818103600083015261220f816121d3565b9050919050565b7f4e6565642065746820746f2063726561746520706f6f6c2e0000000000000000600082015250565b600061224c601883611bba565b915061225782612216565b602082019050919050565b6000602082019050818103600083015261227b8161223f565b9050919050565b60008151905061229181611a0e565b92915050565b6000602082840312156122ad576122ac611a09565b5b60006122bb84828501612282565b91505092915050565b7f4e6f74206861766520656e6f75676820746f6b656e7320746f2063726561746560008201527f2074686520706f6f6c0000000000000000000000000000000000000000000000602082015250565b6000612320602983611bba565b915061232b826122c4565b604082019050919050565b6000602082019050818103600083015261234f81612313565b9050919050565b7f4e65656420746f6b656e7320746f2063726561746520706f6f6c2e0000000000600082015250565b600061238c601b83611bba565b915061239782612356565b602082019050919050565b600060208201905081810360008301526123bb8161237f565b9050919050565b60006060820190506123d76000830186611b2c565b6123e46020830185611b2c565b6123f160408301846119d1565b949350505050565b7f416d6f756e74206d757374206265206120706f7369746976652e000000000000600082015250565b600061242f601a83611bba565b915061243a826123f9565b602082019050919050565b6000602082019050818103600083015261245e81612422565b9050919050565b7f43616e6e6f742072656d6f766520746865736520616d6f756e742e0000000000600082015250565b600061249b601b83611bba565b91506124a682612465565b602082019050919050565b600060208201905081810360008301526124ca8161248e565b9050919050565b7f4f75742072616e6765206f662072617465000000000000000000000000000000600082015250565b6000612507601183611bba565b9150612512826124d1565b602082019050919050565b60006020820190508181036000830152612536816124fa565b9050919050565b7f4e6565642045544820746f206164640000000000000000000000000000000000600082015250565b6000612573600f83611bba565b915061257e8261253d565b602082019050919050565b600060208201905081810360008301526125a281612566565b9050919050565b7f596f7520646f6e2774206861766520656e6f75676820746f6b656e0000000000600082015250565b60006125df601b83611bba565b91506125ea826125a9565b602082019050919050565b6000602082019050818103600083015261260e816125d2565b9050919050565b7f796f7520646f6e74206861766520656e6f75676820616d6f756e7420746f6b6560008201527f6e732e0000000000000000000000000000000000000000000000000000000000602082015250565b6000612671602383611bba565b915061267c82612615565b604082019050919050565b600060208201905081810360008301526126a081612664565b9050919050565b7f4f776e61626c653a206e6577206f776e657220697320746865207a65726f206160008201527f6464726573730000000000000000000000000000000000000000000000000000602082015250565b6000612703602683611bba565b915061270e826126a7565b604082019050919050565b60006020820190508181036000830152612732816126f6565b9050919050565b7f4e487b7100000000000000000000000000000000000000000000000000000000600052602260045260246000fd5b6000600282049050600182168061278057607f821691505b60208210810361279357612792612739565b5b50919050565b7f73706563696669656420696e646578206973206c6172676572207468616e207460008201527f6865206e756d626572206f66206c707300000000000000000000000000000000602082015250565b60006127f5603083611bba565b915061280082612799565b604082019050919050565b60006020820190508181036000830152612824816127e8565b9050919050565b7f4e487b7100000000000000000000000000000000000000000000000000000000600052603160045260246000fd5b7f4f776e61626c653a2063616c6c6572206973206e6f7420746865206f776e6572600082015250565b6000612890602083611bba565b915061289b8261285a565b602082019050919050565b600060208201905081810360008301526128bf81612883565b905091905056fea2646970667358221220a678d7d43b8ea2a3071eeab476132ecc18a5f4188db82a35e56b1562bdb305a664736f6c63430008110033",
  "linkReferences": {},
  "deployedLinkReferences": {}
}